{
  "_format": "hh-sol-artifact-1",
  "contractName": "SugarPretzels",
  "sourceName": "contracts/SugarPretzels/SugarPretzels.sol",
  "abi": [
    {
      "inputs": [
        {
          "internalType": "address",
          "name": "trustedForwarder",
          "type": "address"
        },
        {
          "internalType": "address",
          "name": "_link",
          "type": "address"
        },
        {
          "internalType": "address",
          "name": "_oracle",
          "type": "address"
        }
      ],
      "stateMutability": "nonpayable",
      "type": "constructor"
    },
    {
      "anonymous": false,
      "inputs": [
        {
          "indexed": true,
          "internalType": "address",
          "name": "owner",
          "type": "address"
        },
        {
          "indexed": true,
          "internalType": "address",
          "name": "approved",
          "type": "address"
        },
        {
          "indexed": true,
          "internalType": "uint256",
          "name": "tokenId",
          "type": "uint256"
        }
      ],
      "name": "Approval",
      "type": "event"
    },
    {
      "anonymous": false,
      "inputs": [
        {
          "indexed": true,
          "internalType": "address",
          "name": "owner",
          "type": "address"
        },
        {
          "indexed": true,
          "internalType": "address",
          "name": "operator",
          "type": "address"
        },
        {
          "indexed": false,
          "internalType": "bool",
          "name": "approved",
          "type": "bool"
        }
      ],
      "name": "ApprovalForAll",
      "type": "event"
    },
    {
      "anonymous": false,
      "inputs": [
        {
          "indexed": true,
          "internalType": "bytes32",
          "name": "id",
          "type": "bytes32"
        }
      ],
      "name": "ChainlinkCancelled",
      "type": "event"
    },
    {
      "anonymous": false,
      "inputs": [
        {
          "indexed": true,
          "internalType": "bytes32",
          "name": "id",
          "type": "bytes32"
        }
      ],
      "name": "ChainlinkFulfilled",
      "type": "event"
    },
    {
      "anonymous": false,
      "inputs": [
        {
          "indexed": true,
          "internalType": "bytes32",
          "name": "id",
          "type": "bytes32"
        }
      ],
      "name": "ChainlinkRequested",
      "type": "event"
    },
    {
      "anonymous": false,
      "inputs": [
        {
          "indexed": true,
          "internalType": "address",
          "name": "previousOwner",
          "type": "address"
        },
        {
          "indexed": true,
          "internalType": "address",
          "name": "newOwner",
          "type": "address"
        }
      ],
      "name": "OwnershipTransferred",
      "type": "event"
    },
    {
      "anonymous": false,
      "inputs": [
        {
          "indexed": true,
          "internalType": "address",
          "name": "from",
          "type": "address"
        },
        {
          "indexed": true,
          "internalType": "address",
          "name": "to",
          "type": "address"
        },
        {
          "indexed": true,
          "internalType": "uint256",
          "name": "tokenId",
          "type": "uint256"
        }
      ],
      "name": "Transfer",
      "type": "event"
    },
    {
      "inputs": [
        {
          "internalType": "address",
          "name": "to",
          "type": "address"
        },
        {
          "internalType": "uint256",
          "name": "tokenId",
          "type": "uint256"
        }
      ],
      "name": "approve",
      "outputs": [],
      "stateMutability": "nonpayable",
      "type": "function"
    },
    {
      "inputs": [
        {
          "internalType": "address",
          "name": "owner",
          "type": "address"
        }
      ],
      "name": "balanceOf",
      "outputs": [
        {
          "internalType": "uint256",
          "name": "",
          "type": "uint256"
        }
      ],
      "stateMutability": "view",
      "type": "function"
    },
    {
      "inputs": [],
      "name": "baseURI",
      "outputs": [
        {
          "internalType": "string",
          "name": "",
          "type": "string"
        }
      ],
      "stateMutability": "view",
      "type": "function"
    },
    {
      "inputs": [],
      "name": "currentConditions",
      "outputs": [
        {
          "internalType": "uint256",
          "name": "timestamp",
          "type": "uint256"
        },
        {
          "internalType": "uint24",
          "name": "precipitationPast12Hours",
          "type": "uint24"
        },
        {
          "internalType": "uint24",
          "name": "precipitationPast24Hours",
          "type": "uint24"
        },
        {
          "internalType": "uint24",
          "name": "precipitationPastHour",
          "type": "uint24"
        },
        {
          "internalType": "uint24",
          "name": "pressure",
          "type": "uint24"
        },
        {
          "internalType": "int16",
          "name": "temperature",
          "type": "int16"
        },
        {
          "internalType": "uint16",
          "name": "windDirectionDegrees",
          "type": "uint16"
        },
        {
          "internalType": "uint16",
          "name": "windSpeed",
          "type": "uint16"
        },
        {
          "internalType": "uint8",
          "name": "precipitationType",
          "type": "uint8"
        },
        {
          "internalType": "uint8",
          "name": "relativeHumidity",
          "type": "uint8"
        },
        {
          "internalType": "uint8",
          "name": "uvIndex",
          "type": "uint8"
        },
        {
          "internalType": "uint8",
          "name": "weatherIcon",
          "type": "uint8"
        }
      ],
      "stateMutability": "view",
      "type": "function"
    },
    {
      "inputs": [
        {
          "internalType": "bytes32",
          "name": "_requestId",
          "type": "bytes32"
        },
        {
          "internalType": "bool",
          "name": "_locationFound",
          "type": "bool"
        },
        {
          "internalType": "bytes",
          "name": "_locationResult",
          "type": "bytes"
        },
        {
          "internalType": "bytes",
          "name": "_currentConditionsResult",
          "type": "bytes"
        }
      ],
      "name": "fulfillLocationCurrentConditions",
      "outputs": [],
      "stateMutability": "nonpayable",
      "type": "function"
    },
    {
      "inputs": [
        {
          "internalType": "uint256",
          "name": "tokenId",
          "type": "uint256"
        }
      ],
      "name": "getApproved",
      "outputs": [
        {
          "internalType": "address",
          "name": "",
          "type": "address"
        }
      ],
      "stateMutability": "view",
      "type": "function"
    },
    {
      "inputs": [],
      "name": "getOracleAddress",
      "outputs": [
        {
          "internalType": "address",
          "name": "",
          "type": "address"
        }
      ],
      "stateMutability": "view",
      "type": "function"
    },
    {
      "inputs": [
        {
          "internalType": "address",
          "name": "",
          "type": "address"
        }
      ],
      "name": "hasMintedGaseless",
      "outputs": [
        {
          "internalType": "bool",
          "name": "",
          "type": "bool"
        }
      ],
      "stateMutability": "view",
      "type": "function"
    },
    {
      "inputs": [],
      "name": "hausDerKunstLocation",
      "outputs": [
        {
          "internalType": "string",
          "name": "lat",
          "type": "string"
        },
        {
          "internalType": "string",
          "name": "long",
          "type": "string"
        }
      ],
      "stateMutability": "view",
      "type": "function"
    },
    {
      "inputs": [
        {
          "internalType": "address",
          "name": "owner",
          "type": "address"
        },
        {
          "internalType": "address",
          "name": "operator",
          "type": "address"
        }
      ],
      "name": "isApprovedForAll",
      "outputs": [
        {
          "internalType": "bool",
          "name": "",
          "type": "bool"
        }
      ],
      "stateMutability": "view",
      "type": "function"
    },
    {
      "inputs": [
        {
          "internalType": "address",
          "name": "forwarder",
          "type": "address"
        }
      ],
      "name": "isTrustedForwarder",
      "outputs": [
        {
          "internalType": "bool",
          "name": "",
          "type": "bool"
        }
      ],
      "stateMutability": "view",
      "type": "function"
    },
    {
      "inputs": [],
      "name": "lastUpdate",
      "outputs": [
        {
          "internalType": "uint256",
          "name": "",
          "type": "uint256"
        }
      ],
      "stateMutability": "view",
      "type": "function"
    },
    {
      "inputs": [],
      "name": "locationConditionsJobId",
      "outputs": [
        {
          "internalType": "bytes32",
          "name": "",
          "type": "bytes32"
        }
      ],
      "stateMutability": "view",
      "type": "function"
    },
    {
      "inputs": [],
      "name": "locationInfo",
      "outputs": [
        {
          "internalType": "uint256",
          "name": "locationKey",
          "type": "uint256"
        },
        {
          "internalType": "string",
          "name": "name",
          "type": "string"
        },
        {
          "internalType": "bytes2",
          "name": "countryCode",
          "type": "bytes2"
        }
      ],
      "stateMutability": "view",
      "type": "function"
    },
    {
      "inputs": [],
      "name": "mint",
      "outputs": [],
      "stateMutability": "nonpayable",
      "type": "function"
    },
    {
      "inputs": [],
      "name": "mintWithoutGas",
      "outputs": [],
      "stateMutability": "nonpayable",
      "type": "function"
    },
    {
      "inputs": [],
      "name": "name",
      "outputs": [
        {
          "internalType": "string",
          "name": "",
          "type": "string"
        }
      ],
      "stateMutability": "view",
      "type": "function"
    },
    {
      "inputs": [],
      "name": "owner",
      "outputs": [
        {
          "internalType": "address",
          "name": "",
          "type": "address"
        }
      ],
      "stateMutability": "view",
      "type": "function"
    },
    {
      "inputs": [
        {
          "internalType": "uint256",
          "name": "tokenId",
          "type": "uint256"
        }
      ],
      "name": "ownerOf",
      "outputs": [
        {
          "internalType": "address",
          "name": "",
          "type": "address"
        }
      ],
      "stateMutability": "view",
      "type": "function"
    },
    {
      "inputs": [],
      "name": "precipitationConversionConstant",
      "outputs": [
        {
          "internalType": "uint24",
          "name": "",
          "type": "uint24"
        }
      ],
      "stateMutability": "view",
      "type": "function"
    },
    {
      "inputs": [
        {
          "internalType": "uint256",
          "name": "",
          "type": "uint256"
        }
      ],
      "name": "pretzelData",
      "outputs": [
        {
          "internalType": "uint8",
          "name": "background",
          "type": "uint8"
        },
        {
          "internalType": "bool",
          "name": "half",
          "type": "bool"
        },
        {
          "internalType": "bool",
          "name": "salt",
          "type": "bool"
        },
        {
          "internalType": "enum SugarPretzels.Coating",
          "name": "coating",
          "type": "uint8"
        },
        {
          "internalType": "enum SugarPretzels.Topping",
          "name": "topping",
          "type": "uint8"
        }
      ],
      "stateMutability": "view",
      "type": "function"
    },
    {
      "inputs": [],
      "name": "renounceOwnership",
      "outputs": [],
      "stateMutability": "nonpayable",
      "type": "function"
    },
    {
      "inputs": [],
      "name": "requestLocationCurrentConditions",
      "outputs": [],
      "stateMutability": "nonpayable",
      "type": "function"
    },
    {
      "inputs": [
        {
          "internalType": "address",
          "name": "from",
          "type": "address"
        },
        {
          "internalType": "address",
          "name": "to",
          "type": "address"
        },
        {
          "internalType": "uint256",
          "name": "tokenId",
          "type": "uint256"
        }
      ],
      "name": "safeTransferFrom",
      "outputs": [],
      "stateMutability": "nonpayable",
      "type": "function"
    },
    {
      "inputs": [
        {
          "internalType": "address",
          "name": "from",
          "type": "address"
        },
        {
          "internalType": "address",
          "name": "to",
          "type": "address"
        },
        {
          "internalType": "uint256",
          "name": "tokenId",
          "type": "uint256"
        },
        {
          "internalType": "bytes",
          "name": "_data",
          "type": "bytes"
        }
      ],
      "name": "safeTransferFrom",
      "outputs": [],
      "stateMutability": "nonpayable",
      "type": "function"
    },
    {
      "inputs": [
        {
          "internalType": "address",
          "name": "operator",
          "type": "address"
        },
        {
          "internalType": "bool",
          "name": "approved",
          "type": "bool"
        }
      ],
      "name": "setApprovalForAll",
      "outputs": [],
      "stateMutability": "nonpayable",
      "type": "function"
    },
    {
      "inputs": [
        {
          "internalType": "string",
          "name": "uri",
          "type": "string"
        }
      ],
      "name": "setBaseURI",
      "outputs": [],
      "stateMutability": "nonpayable",
      "type": "function"
    },
    {
      "inputs": [
        {
          "internalType": "bytes32",
          "name": "_locationConditionsJobId",
          "type": "bytes32"
        }
      ],
      "name": "setLocationConditionsJobId",
      "outputs": [],
      "stateMutability": "nonpayable",
      "type": "function"
    },
    {
      "inputs": [
        {
          "internalType": "address",
          "name": "_oracle",
          "type": "address"
        }
      ],
      "name": "setOracle",
      "outputs": [],
      "stateMutability": "nonpayable",
      "type": "function"
    },
    {
      "inputs": [
        {
          "internalType": "uint256",
          "name": "delta",
          "type": "uint256"
        }
      ],
      "name": "setUpdateFrequency",
      "outputs": [],
      "stateMutability": "nonpayable",
      "type": "function"
    },
    {
      "inputs": [
        {
          "internalType": "bytes4",
          "name": "interfaceId",
          "type": "bytes4"
        }
      ],
      "name": "supportsInterface",
      "outputs": [
        {
          "internalType": "bool",
          "name": "",
          "type": "bool"
        }
      ],
      "stateMutability": "view",
      "type": "function"
    },
    {
      "inputs": [],
      "name": "symbol",
      "outputs": [
        {
          "internalType": "string",
          "name": "",
          "type": "string"
        }
      ],
      "stateMutability": "view",
      "type": "function"
    },
    {
      "inputs": [],
      "name": "temperatureConversionConstant",
      "outputs": [
        {
          "internalType": "int16",
          "name": "",
          "type": "int16"
        }
      ],
      "stateMutability": "view",
      "type": "function"
    },
    {
      "inputs": [
        {
          "internalType": "uint256",
          "name": "tokenId",
          "type": "uint256"
        }
      ],
      "name": "tokenURI",
      "outputs": [
        {
          "internalType": "string",
          "name": "",
          "type": "string"
        }
      ],
      "stateMutability": "view",
      "type": "function"
    },
    {
      "inputs": [],
      "name": "totalSupply",
      "outputs": [
        {
          "internalType": "uint256",
          "name": "",
          "type": "uint256"
        }
      ],
      "stateMutability": "view",
      "type": "function"
    },
    {
      "inputs": [
        {
          "internalType": "address",
          "name": "from",
          "type": "address"
        },
        {
          "internalType": "address",
          "name": "to",
          "type": "address"
        },
        {
          "internalType": "uint256",
          "name": "tokenId",
          "type": "uint256"
        }
      ],
      "name": "transferFrom",
      "outputs": [],
      "stateMutability": "nonpayable",
      "type": "function"
    },
    {
      "inputs": [
        {
          "internalType": "address",
          "name": "newOwner",
          "type": "address"
        }
      ],
      "name": "transferOwnership",
      "outputs": [],
      "stateMutability": "nonpayable",
      "type": "function"
    },
    {
      "inputs": [],
      "name": "updateFrequency",
      "outputs": [
        {
          "internalType": "uint256",
          "name": "",
          "type": "uint256"
        }
      ],
      "stateMutability": "view",
      "type": "function"
    },
    {
      "inputs": [],
      "name": "withdrawLink",
      "outputs": [],
      "stateMutability": "nonpayable",
      "type": "function"
    }
  ],
  "bytecode": "0x6001600a5560e06040819052600060c08190526200002091601291620002a5565b50600160145561a8c06016557f376332373639383665323362346231633939306438363539626361376139643060175567016345785d8a0000601855604080516080810182526012818301818152710d0e0b8c4d0d0c0d0cce0d0d8dcdce4d4dcd60721b606084015282528251808401909352825271062625c6a706a7064646c707268706e6c6e760731b60208381019190915280820192909252805180519192601992620000d39284920190620002a5565b506020828101518051620000ee9260018501920190620002a5565b50506000601b5550600460a0523480156200010857600080fd5b5060405162003d9e38038062003d9e8339810160408190526200012b9162000368565b604080518082018252600d81526c5375676172507265747a656c7360981b60208083019182528351808501909452600384526253505360e81b9084015281518693916200017c9160009190620002a5565b50805162000192906001906020840190620002a5565b5050506001600160a01b0316608052620001b5620001af620001fa565b62000216565b600880546001600160a01b0319166001600160a01b038416179055600980546001600160a01b0319166001600160a01b038316179055505060145460135550620003ef565b6000620002116200026860201b6200164c1760201c565b905090565b600c80546001600160a01b038381166001600160a01b0319831681179093556040519116919082907f8be0079c531659141344cd1fd0a4f28419497f9722a3daafe3b4186f6b6457e090600090a35050565b6080516000906001600160a01b03163314156200028c575060131936013560601c90565b62000211620002a160201b6200166e1760201c565b3390565b828054620002b390620003b2565b90600052602060002090601f016020900481019282620002d7576000855562000322565b82601f10620002f257805160ff191683800117855562000322565b8280016001018555821562000322579182015b828111156200032257825182559160200191906001019062000305565b506200033092915062000334565b5090565b5b8082111562000330576000815560010162000335565b80516001600160a01b03811681146200036357600080fd5b919050565b6000806000606084860312156200037e57600080fd5b62000389846200034b565b925062000399602085016200034b565b9150620003a9604085016200034b565b90509250925092565b600181811c90821680620003c757607f821691505b60208210811415620003e957634e487b7160e01b600052602260045260246000fd5b50919050565b60805160a0516139896200041560003960006117d601526000610c1f01526139896000f3fe608060405234801561001057600080fd5b506004361061022d5760003560e01c806370a082311161013b578063a22cb465116100b8578063c87b56dd1161007c578063c87b56dd146105c8578063e32c7af2146105db578063e8eacfdd146105e3578063e985e9c5146105fa578063f2fde38b1461060d57600080fd5b8063a22cb4651461057e578063ae5a840d14610591578063b18b78dd146105a4578063b88d4fde146105ac578063c0463711146105bf57600080fd5b80638b2e5d30116100ff5780638b2e5d30146105425780638da5cb5b1461055e5780638dc654a214610566578063936eb8281461056e57806395d89b411461057657600080fd5b806370a08231146104e857806370bc8a72146104fb578063715018a614610504578063777986e71461050c5780637adbf9731461052f57600080fd5b806342842e0e116101c95780635a6b89441161018d5780635a6b8944146103b15780635a81d3b1146104a95780636352211e146104c4578063673ea086146104d75780636c0360eb146104e057600080fd5b806342842e0e1461030957806343076edb1461031c5780634a1be6cb1461037857806355f804b31461038b578063572b6c051461039e57600080fd5b806301ffc9a71461023257806306fdde031461025a578063081812fc1461026f578063095ea7b31461029a5780631249c58b146102af57806318160ddd146102b75780631d0e83d5146102cd57806323b872dd146102e3578063371eaced146102f6575b600080fd5b610245610240366004612d75565b610620565b60405190151581526020015b60405180910390f35b610262610672565b6040516102519190612dea565b61028261027d366004612dfd565b610704565b6040516001600160a01b039091168152602001610251565b6102ad6102a8366004612e32565b610791565b005b6102ad6108b4565b601454601354035b604051908152602001610251565b6102d5610940565b604051610251929190612e5c565b6102ad6102f1366004612e81565b610a60565b6102ad610304366004612fd9565b610a98565b6102ad610317366004612e81565b610b73565b61036761032a366004612dfd565b601c6020526000908152604090205460ff808216916101008104821691620100008204811691630100000081048216916401000000009091041685565b60405161025195949392919061306e565b6102ad610386366004612dfd565b610b8e565b6102ad6103993660046130be565b610bd2565b6102456103ac36600461312f565b610c1d565b600d54600e54610434919062ffffff808216916301000000810482169166010000000000008204811691600160481b810490911690600160601b810460010b9061ffff600160701b8204811691600160801b81049091169060ff600160901b8204811691600160981b8104821691600160a01b8204811691600160a81b9004168c565b604080519c8d5262ffffff9b8c1660208e0152998b16998c019990995296891660608b015294909716608089015260019290920b60a088015261ffff90811660c08801521660e086015260ff938416610100860152831661012085015282166101408401521661016082015261018001610251565b6104b1600a81565b60405160019190910b8152602001610251565b6102826104d2366004612dfd565b610c4f565b6102bf60165481565b610262610cc6565b6102bf6104f636600461312f565b610d54565b6102bf60175481565b6102ad610ddb565b61024561051a36600461312f565b60156020526000908152604090205460ff1681565b6102ad61053d36600461312f565b610e24565b61054a606481565b60405162ffffff9091168152602001610251565b610282610e84565b6102ad610e93565b6102ad611029565b6102626110f1565b6102ad61058c36600461314a565b611100565b6102ad61059f366004612dfd565b611116565b61028261115a565b6102ad6105ba366004613181565b611173565b6102bf601b5481565b6102626105d6366004612dfd565b6111b2565b6102ad61127d565b6105eb6114d1565b604051610251939291906131dc565b61024561060836600461320c565b611571565b6102ad61061b36600461312f565b61159f565b60006001600160e01b031982166380ac58cd60e01b148061065157506001600160e01b03198216635b5e139f60e01b145b8061066c57506301ffc9a760e01b6001600160e01b03198316145b92915050565b6060600080546106819061323f565b80601f01602080910402602001604051908101604052809291908181526020018280546106ad9061323f565b80156106fa5780601f106106cf576101008083540402835291602001916106fa565b820191906000526020600020905b8154815290600101906020018083116106dd57829003601f168201915b5050505050905090565b600061070f82611672565b6107755760405162461bcd60e51b815260206004820152602c60248201527f4552433732313a20617070726f76656420717565727920666f72206e6f6e657860448201526b34b9ba32b73a103a37b5b2b760a11b60648201526084015b60405180910390fd5b506000908152600460205260409020546001600160a01b031690565b600061079c82610c4f565b9050806001600160a01b0316836001600160a01b0316141561080a5760405162461bcd60e51b815260206004820152602160248201527f4552433732313a20617070726f76616c20746f2063757272656e74206f776e656044820152603960f91b606482015260840161076c565b806001600160a01b031661081c61168f565b6001600160a01b0316148061083857506108388161060861168f565b6108a55760405162461bcd60e51b815260206004820152603860248201527f4552433732313a20617070726f76652063616c6c6572206973206e6f74206f776044820152771b995c881b9bdc88185c1c1c9bdd995908199bdc88185b1b60421b606482015260840161076c565b6108af8383611699565b505050565b326108bd61168f565b6001600160a01b03161461091e5760405162461bcd60e51b815260206004820152602260248201527f436f6e74726163747320617265206e6f7420616c6c6f77656420746f206d696e6044820152613a1760f11b606482015260840161076c565b61093e61092961168f565b61093961093461168f565b611707565b611881565b565b60198054819061094f9061323f565b80601f016020809104026020016040519081016040528092919081815260200182805461097b9061323f565b80156109c85780601f1061099d576101008083540402835291602001916109c8565b820191906000526020600020905b8154815290600101906020018083116109ab57829003601f168201915b5050505050908060010180546109dd9061323f565b80601f0160208091040260200160405190810160405280929190818152602001828054610a099061323f565b8015610a565780601f10610a2b57610100808354040283529160200191610a56565b820191906000526020600020905b815481529060010190602001808311610a3957829003601f168201915b5050505050905082565b610a71610a6b61168f565b8261195d565b610a8d5760405162461bcd60e51b815260040161076c90613274565b6108af838383611a27565b6000848152600b602052604090205484906001600160a01b03163314610b115760405162461bcd60e51b815260206004820152602860248201527f536f75726365206d75737420626520746865206f7261636c65206f6620746865604482015267081c995c5d595cdd60c21b606482015260840161076c565b6000818152600b602052604080822080546001600160a01b03191690555182917f7cc135e0cebb02c3480ae5d74d377283180a2601f8f644edf7987b009316c63a91a28315610b6c57610b6383611bc3565b610b6c82611c1f565b5050505050565b6108af83838360405180602001604052806000815250611173565b610b9661168f565b6001600160a01b0316610ba7610e84565b6001600160a01b031614610bcd5760405162461bcd60e51b815260040161076c906132c5565b601655565b610bda61168f565b6001600160a01b0316610beb610e84565b6001600160a01b031614610c115760405162461bcd60e51b815260040161076c906132c5565b6108af60128383612c03565b7f00000000000000000000000000000000000000000000000000000000000000006001600160a01b0390811691161490565b6000818152600260205260408120546001600160a01b03168061066c5760405162461bcd60e51b815260206004820152602960248201527f4552433732313a206f776e657220717565727920666f72206e6f6e657869737460448201526832b73a103a37b5b2b760b91b606482015260840161076c565b60128054610cd39061323f565b80601f0160208091040260200160405190810160405280929190818152602001828054610cff9061323f565b8015610d4c5780601f10610d2157610100808354040283529160200191610d4c565b820191906000526020600020905b815481529060010190602001808311610d2f57829003601f168201915b505050505081565b60006001600160a01b038216610dbf5760405162461bcd60e51b815260206004820152602a60248201527f4552433732313a2062616c616e636520717565727920666f7220746865207a65604482015269726f206164647265737360b01b606482015260840161076c565b506001600160a01b031660009081526003602052604090205490565b610de361168f565b6001600160a01b0316610df4610e84565b6001600160a01b031614610e1a5760405162461bcd60e51b815260040161076c906132c5565b61093e6000611dd3565b610e2c61168f565b6001600160a01b0316610e3d610e84565b6001600160a01b031614610e635760405162461bcd60e51b815260040161076c906132c5565b600980546001600160a01b0319166001600160a01b03831617905550565b50565b600c546001600160a01b031690565b610e9b61168f565b6001600160a01b0316610eac610e84565b6001600160a01b031614610ed25760405162461bcd60e51b815260040161076c906132c5565b6000610ee66008546001600160a01b031690565b6040516370a0823160e01b81523060048201529091506001600160a01b0382169063a9059cbb90339083906370a082319060240160206040518083038186803b158015610f3257600080fd5b505afa158015610f46573d6000803e3d6000fd5b505050506040513d601f19601f82011682018060405250810190610f6a91906132fa565b6040516001600160e01b031960e085901b1681526001600160a01b0390921660048301526024820152604401602060405180830381600087803b158015610fb057600080fd5b505af1158015610fc4573d6000803e3d6000fd5b505050506040513d601f19601f82011682018060405250810190610fe89190613313565b610e815760405162461bcd60e51b81526020600482015260126024820152712ab730b13632903a37903a3930b739b332b960711b604482015260640161076c565b6015600061103561168f565b6001600160a01b0316815260208101919091526040016000205460ff16156110b05760405162461bcd60e51b815260206004820152602860248201527f4d6178696d756d206e756d626572206f66206761736c657373206d696e7473206044820152673932b0b1b432b21760c11b606482015260840161076c565b6001601560006110be61168f565b6001600160a01b031681526020810191909152604001600020805460ff191691151591909117905561093e61092961168f565b6060600180546106819061323f565b61111261110b61168f565b8383611e25565b5050565b61111e61168f565b6001600160a01b031661112f610e84565b6001600160a01b0316146111555760405162461bcd60e51b815260040161076c906132c5565b601755565b600061116e6009546001600160a01b031690565b905090565b61118461117e61168f565b8361195d565b6111a05760405162461bcd60e51b815260040161076c90613274565b6111ac84848484611ef0565b50505050565b60606111bd82611672565b6112215760405162461bcd60e51b815260206004820152602f60248201527f4552433732314d657461646174613a2055524920717565727920666f72206e6f60448201526e3732bc34b9ba32b73a103a37b5b2b760891b606482015260840161076c565b600061122b611f23565b9050600081511161124b5760405180602001604052806000815250611276565b8061125584611f32565b604051602001611266929190613330565b6040516020818303038152906040525b9392505050565b601654601b5461128d9042613375565b10156113015760405162461bcd60e51b815260206004820152603e60248201527f5765617468657220636f6e646974696f6e732063616e206f6e6c79206265207560448201527f70646174656420657665727920247570646174654672657175656e63792e0000606482015260840161076c565b42601b5560175460009061131d903063371eaced60e01b61202f565b905061138960405180604001604052806008815260200167195b991c1bda5b9d60c21b8152506040518060400160405280601b81526020017f6c6f636174696f6e2d63757272656e742d636f6e646974696f6e730000000000815250836120549092919063ffffffff16565b611446604051806040016040528060038152602001621b185d60ea1b815250601960000180546113b89061323f565b80601f01602080910402602001604051908101604052809291908181526020018280546113e49061323f565b80156114315780601f1061140657610100808354040283529160200191611431565b820191906000526020600020905b81548152906001019060200180831161141457829003601f168201915b5050505050836120549092919063ffffffff16565b611475604051806040016040528060038152602001623637b760e91b815250601960010180546113b89061323f565b6114c560405180604001604052806005815260200164756e69747360d81b815250604051806040016040528060068152602001656d657472696360d01b815250836120549092919063ffffffff16565b61111281601854612072565b600f8054601080549192916114e59061323f565b80601f01602080910402602001604051908101604052809291908181526020018280546115119061323f565b801561155e5780601f106115335761010080835404028352916020019161155e565b820191906000526020600020905b81548152906001019060200180831161154157829003601f168201915b5050506002909301549192505060f01b83565b6001600160a01b03918216600090815260056020908152604080832093909416825291909152205460ff1690565b6115a761168f565b6001600160a01b03166115b8610e84565b6001600160a01b0316146115de5760405162461bcd60e51b815260040161076c906132c5565b6001600160a01b0381166116435760405162461bcd60e51b815260206004820152602660248201527f4f776e61626c653a206e6577206f776e657220697320746865207a65726f206160448201526564647265737360d01b606482015260840161076c565b610e8181611dd3565b600061165733610c1d565b15611669575060131936013560601c90565b503390565b3390565b6000908152600260205260409020546001600160a01b0316151590565b600061116e61164c565b600081815260046020526040902080546001600160a01b0319166001600160a01b03841690811790915581906116ce82610c4f565b6001600160a01b03167f8c5be1e5ebec7d5bd14f71427d1e84f3dd0314c0f7b2291e5b200ac8c7c3b92560405160405180910390a45050565b60408051600480825260a082019092526060916000919060208201608080368337019050509050823a43424461173e600184613375565b403061174d6014546013540390565b604080516001600160a01b03998a166020820152908101979097526060870195909552608086019390935260a085019190915260c084015290921660e0820152610100810191909152610120016040516020818303038152906040528051906020012060001c816000815181106117c6576117c661338c565b602090810291909101015260015b7f000000000000000000000000000000000000000000000000000000000000000081101561187a5781611808600183613375565b815181106118185761181861338c565b602002602001015160405160200161183291815260200190565b6040516020818303038152906040528051906020012060001c82828151811061185d5761185d61338c565b602090810291909101015280611872816133a2565b9150506117d4565b5092915050565b601380546001810190915560006118978361208c565b6000838152601c60209081526040918290208351815492850151938501511515620100000262ff0000199415156101000261ffff1990941660ff9092169190911792909217928316821781556060840151939450849390929091839163ff0000001990911663ffff00001990911617630100000083600281111561191d5761191d613058565b021790555060808201518154829064ff00000000191664010000000083600c81111561194b5761194b613058565b02179055509050506111ac84836123a3565b600061196882611672565b6119c95760405162461bcd60e51b815260206004820152602c60248201527f4552433732313a206f70657261746f7220717565727920666f72206e6f6e657860448201526b34b9ba32b73a103a37b5b2b760a11b606482015260840161076c565b60006119d483610c4f565b9050806001600160a01b0316846001600160a01b03161480611a0f5750836001600160a01b0316611a0484610704565b6001600160a01b0316145b80611a1f5750611a1f8185611571565b949350505050565b826001600160a01b0316611a3a82610c4f565b6001600160a01b031614611a9e5760405162461bcd60e51b815260206004820152602560248201527f4552433732313a207472616e736665722066726f6d20696e636f72726563742060448201526437bbb732b960d91b606482015260840161076c565b6001600160a01b038216611b005760405162461bcd60e51b8152602060048201526024808201527f4552433732313a207472616e7366657220746f20746865207a65726f206164646044820152637265737360e01b606482015260840161076c565b611b0b600082611699565b6001600160a01b0383166000908152600360205260408120805460019290611b34908490613375565b90915550506001600160a01b0382166000908152600360205260408120805460019290611b629084906133bd565b909155505060008181526002602052604080822080546001600160a01b0319166001600160a01b0386811691821790925591518493918716917fddf252ad1be2c89b69c2b068fc378daa952ba7f163c4a11628f55a4df523b3ef91a4505050565b600081806020019051810190611bd991906133ed565b8051600f90815560208083015180519394508493611bfb926010920190612c87565b50604091909101516002909101805461ffff191660f09290921c9190911790555050565b600081806020019051810190611c3591906134f4565b905080600d6000820151816000015560208201518160010160006101000a81548162ffffff021916908362ffffff16021790555060408201518160010160036101000a81548162ffffff021916908362ffffff16021790555060608201518160010160066101000a81548162ffffff021916908362ffffff16021790555060808201518160010160096101000a81548162ffffff021916908362ffffff16021790555060a082015181600101600c6101000a81548161ffff021916908360010b61ffff16021790555060c082015181600101600e6101000a81548161ffff021916908361ffff16021790555060e08201518160010160106101000a81548161ffff021916908361ffff1602179055506101008201518160010160126101000a81548160ff021916908360ff1602179055506101208201518160010160136101000a81548160ff021916908360ff1602179055506101408201518160010160146101000a81548160ff021916908360ff1602179055506101608201518160010160156101000a81548160ff021916908360ff1602179055509050505050565b600c80546001600160a01b038381166001600160a01b0319831681179093556040519116919082907f8be0079c531659141344cd1fd0a4f28419497f9722a3daafe3b4186f6b6457e090600090a35050565b816001600160a01b0316836001600160a01b03161415611e835760405162461bcd60e51b815260206004820152601960248201527822a9219b99189d1030b8383937bb32903a379031b0b63632b960391b604482015260640161076c565b6001600160a01b03838116600081815260056020908152604080832094871680845294825291829020805460ff191686151590811790915591519182527f17307eab39ab6107e8899845ad3d59bd9653f200f220920489ca2b5937696c31910160405180910390a3505050565b611efb848484611a27565b611f07848484846123bd565b6111ac5760405162461bcd60e51b815260040161076c906135d9565b6060601280546106819061323f565b606081611f565750506040805180820190915260018152600360fc1b602082015290565b8160005b8115611f805780611f6a816133a2565b9150611f799050600a83613641565b9150611f5a565b6000816001600160401b03811115611f9a57611f9a612ecb565b6040519080825280601f01601f191660200182016040528015611fc4576020820181803683370190505b5090505b8415611a1f57611fd9600183613375565b9150611fe6600a86613655565b611ff19060306133bd565b60f81b8183815181106120065761200661338c565b60200101906001600160f81b031916908160001a905350612028600a86613641565b9450611fc8565b612037612cfb565b61203f612cfb565b61204b818686866124d1565b95945050505050565b6080830151612063908361250e565b60808301516108af908261250e565b600954600090611276906001600160a01b03168484612525565b6120bd6040805160a08101825260008082526020820181905291810182905290606082019081526020016000905290565b600e54600160601b810460010b9062ffffff16600380600084136120e45760009150612124565b6120f0600a600f613669565b60010b8460010b12156121065760019150612124565b612112600a601e613669565b60010b8460010b121561212457600291505b62ffffff83166121365750600061217c565b612142606460196136f4565b62ffffff168362ffffff16101561215b5750600161217c565b6121676064604b6136f4565b62ffffff168362ffffff16101561217c575060025b600061218983600461371f565b6121939083613748565b905060006002886000815181106121ac576121ac61338c565b60200260200101516121be9190613655565b6001141590506000600a896001815181106121db576121db61338c565b60200260200101516121ed9190613655565b1590508080156121fb575081155b1561224c576040518060a001604052808460ff1681526020018315158152602001821515815260200160028081111561223657612236613058565b8152602001600c90529998505050505050505050565b600080600a8b6002815181106122645761226461338c565b60200260200101516122769190613655565b119050801561235657600060028b6002815181106122965761229661338c565b60200260200101516122a89190613655565b60028111156122b9576122b9613058565b90506000600d8c6003815181106122d2576122d261338c565b60200260200101516122e49190613655565b600c8111156122f5576122f5613058565b90506040518060a001604052808760ff1681526020018615158152602001851515815260200183600281111561232d5761232d613058565b815260200182600c81111561234457612344613058565b90529c9b505050505050505050505050565b6040518060a001604052808560ff1681526020018415158152602001831515815260200160028081111561238c5761238c613058565b8152602001600c90529a9950505050505050505050565b6111128282604051806020016040528060008152506125b8565b60006001600160a01b0384163b156124c657836001600160a01b031663150b7a026123e661168f565b8786866040518563ffffffff1660e01b8152600401612408949392919061376d565b602060405180830381600087803b15801561242257600080fd5b505af1925050508015612452575060408051601f3d908101601f1916820190925261244f918101906137a0565b60015b6124ac573d808015612480576040519150601f19603f3d011682016040523d82523d6000602084013e612485565b606091505b5080516124a45760405162461bcd60e51b815260040161076c906135d9565b805181602001fd5b6001600160e01b031916630a85bd0160e11b149050611a1f565b506001949350505050565b6124d9612cfb565b6124e985608001516101006125eb565b50509183526001600160a01b031660208301526001600160e01b031916604082015290565b61251b8260038351612643565b6108af828261274a565b600a546000906125368160016133bd565b600a55835160408086015160808701515191516000936320214ca360e11b9361256e9386938493923092918a916001916024016137bd565b60408051601f198184030181529190526020810180516001600160e01b03166001600160e01b03199093169290921790915290506125ae86838684612764565b9695505050505050565b6125c283836128d1565b6125cf60008484846123bd565b6108af5760405162461bcd60e51b815260040161076c906135d9565b6125f3612d30565b6125fe602083613655565b156126265761260e602083613655565b612619906020613375565b61262390836133bd565b91505b506020828101829052604080518085526000815290920101905290565b6017816001600160401b031611612667576111ac8360e0600585901b168317612a04565b60ff816001600160401b0316116126a35761268d836018611fe0600586901b1617612a04565b506111ac836001600160401b0383166001612a1c565b61ffff816001600160401b0316116126e0576126ca836019611fe0600586901b1617612a04565b506111ac836001600160401b0383166002612a1c565b63ffffffff816001600160401b03161161271f5761270983601a611fe0600586901b1617612a04565b506111ac836001600160401b0383166004612a1c565b61273483601b611fe0600586901b1617612a04565b506111ac836001600160401b0383166008612a1c565b612752612d30565b61127683846000015151848551612a35565b6040516bffffffffffffffffffffffff193060601b1660208201526034810184905260009060540160408051808303601f1901815282825280516020918201206000818152600b90925291812080546001600160a01b0319166001600160a01b038a1617905590925082917fb5e6e01e79f91267dc17b4e6314d5d4d03593d2ceee0fbb452b750bd70ea5af99190a2600854604051630200057560e51b81526001600160a01b0390911690634000aea09061282790889087908790600401613825565b602060405180830381600087803b15801561284157600080fd5b505af1158015612855573d6000803e3d6000fd5b505050506040513d601f19601f820116820180604052508101906128799190613313565b611a1f5760405162461bcd60e51b815260206004820152602360248201527f756e61626c6520746f207472616e73666572416e6443616c6c20746f206f7261604482015262636c6560e81b606482015260840161076c565b6001600160a01b0382166129275760405162461bcd60e51b815260206004820181905260248201527f4552433732313a206d696e7420746f20746865207a65726f2061646472657373604482015260640161076c565b61293081611672565b1561297d5760405162461bcd60e51b815260206004820152601c60248201527f4552433732313a20746f6b656e20616c7265616479206d696e74656400000000604482015260640161076c565b6001600160a01b03821660009081526003602052604081208054600192906129a69084906133bd565b909155505060008181526002602052604080822080546001600160a01b0319166001600160a01b03861690811790915590518392907fddf252ad1be2c89b69c2b068fc378daa952ba7f163c4a11628f55a4df523b3ef908290a45050565b612a0c612d30565b6112768384600001515184612b12565b612a24612d30565b611a1f848560000151518585612b61565b612a3d612d30565b8251821115612a4b57600080fd5b6020850151612a5a83866133bd565b1115612a8d57612a8d85612a7d87602001518786612a7891906133bd565b612bd5565b612a8890600261384c565b612bec565b600080865180518760208301019350808887011115612aac5787860182525b505050602084015b60208410612aec5780518252612acb6020836133bd565b9150612ad86020826133bd565b9050612ae5602085613375565b9350612ab4565b51815160001960208690036101000a019081169019919091161790525083949350505050565b612b1a612d30565b83602001518310612b3a57612b3a8485602001516002612a88919061384c565b835180516020858301018481535080851415612b57576001810182525b5093949350505050565b612b69612d30565b6020850151612b7885846133bd565b1115612b8c57612b8c85612a7d86856133bd565b60006001612b9c84610100613947565b612ba69190613375565b9050855183868201018583198251161781525080518487011115612bca5783860181525b509495945050505050565b600081831115612be657508161066c565b50919050565b8151612bf883836125eb565b506111ac838261274a565b828054612c0f9061323f565b90600052602060002090601f016020900481019282612c315760008555612c77565b82601f10612c4a5782800160ff19823516178555612c77565b82800160010185558215612c77579182015b82811115612c77578235825591602001919060010190612c5c565b50612c83929150612d4a565b5090565b828054612c939061323f565b90600052602060002090601f016020900481019282612cb55760008555612c77565b82601f10612cce57805160ff1916838001178555612c77565b82800160010185558215612c77579182015b82811115612c77578251825591602001919060010190612ce0565b6040805160a081018252600080825260208201819052918101829052606081019190915260808101612d2b612d30565b905290565b604051806040016040528060608152602001600081525090565b5b80821115612c835760008155600101612d4b565b6001600160e01b031981168114610e8157600080fd5b600060208284031215612d8757600080fd5b813561127681612d5f565b60005b83811015612dad578181015183820152602001612d95565b838111156111ac5750506000910152565b60008151808452612dd6816020860160208601612d92565b601f01601f19169290920160200192915050565b6020815260006112766020830184612dbe565b600060208284031215612e0f57600080fd5b5035919050565b80356001600160a01b0381168114612e2d57600080fd5b919050565b60008060408385031215612e4557600080fd5b612e4e83612e16565b946020939093013593505050565b604081526000612e6f6040830185612dbe565b828103602084015261204b8185612dbe565b600080600060608486031215612e9657600080fd5b612e9f84612e16565b9250612ead60208501612e16565b9150604084013590509250925092565b8015158114610e8157600080fd5b634e487b7160e01b600052604160045260246000fd5b604051606081016001600160401b0381118282101715612f0357612f03612ecb565b60405290565b60405161018081016001600160401b0381118282101715612f0357612f03612ecb565b604051601f8201601f191681016001600160401b0381118282101715612f5457612f54612ecb565b604052919050565b60006001600160401b03821115612f7557612f75612ecb565b50601f01601f191660200190565b600082601f830112612f9457600080fd5b8135612fa7612fa282612f5c565b612f2c565b818152846020838601011115612fbc57600080fd5b816020850160208301376000918101602001919091529392505050565b60008060008060808587031215612fef57600080fd5b84359350602085013561300181612ebd565b925060408501356001600160401b038082111561301d57600080fd5b61302988838901612f83565b9350606087013591508082111561303f57600080fd5b5061304c87828801612f83565b91505092959194509250565b634e487b7160e01b600052602160045260246000fd5b60ff861681528415156020820152831515604082015260a081016003841061309857613098613058565b836060830152600d83106130ae576130ae613058565b8260808301529695505050505050565b600080602083850312156130d157600080fd5b82356001600160401b03808211156130e857600080fd5b818501915085601f8301126130fc57600080fd5b81358181111561310b57600080fd5b86602082850101111561311d57600080fd5b60209290920196919550909350505050565b60006020828403121561314157600080fd5b61127682612e16565b6000806040838503121561315d57600080fd5b61316683612e16565b9150602083013561317681612ebd565b809150509250929050565b6000806000806080858703121561319757600080fd5b6131a085612e16565b93506131ae60208601612e16565b92506040850135915060608501356001600160401b038111156131d057600080fd5b61304c87828801612f83565b8381526060602082015260006131f56060830185612dbe565b905061ffff60f01b83166040830152949350505050565b6000806040838503121561321f57600080fd5b61322883612e16565b915061323660208401612e16565b90509250929050565b600181811c9082168061325357607f821691505b60208210811415612be657634e487b7160e01b600052602260045260246000fd5b60208082526031908201527f4552433732313a207472616e736665722063616c6c6572206973206e6f74206f6040820152701ddb995c881b9bdc88185c1c1c9bdd9959607a1b606082015260800190565b6020808252818101527f4f776e61626c653a2063616c6c6572206973206e6f7420746865206f776e6572604082015260600190565b60006020828403121561330c57600080fd5b5051919050565b60006020828403121561332557600080fd5b815161127681612ebd565b60008351613342818460208801612d92565b835190830190613356818360208801612d92565b01949350505050565b634e487b7160e01b600052601160045260246000fd5b6000828210156133875761338761335f565b500390565b634e487b7160e01b600052603260045260246000fd5b60006000198214156133b6576133b661335f565b5060010190565b600082198211156133d0576133d061335f565b500190565b80516001600160f01b031981168114612e2d57600080fd5b6000602080838503121561340057600080fd5b82516001600160401b038082111561341757600080fd5b908401906060828703121561342b57600080fd5b613433612ee1565b82518152838301518281111561344857600080fd5b83019150601f8201871361345b57600080fd5b8151613469612fa282612f5c565b818152888683860101111561347d57600080fd5b61348c82878301888701612d92565b828601525061349d604084016133d5565b60408201529695505050505050565b805162ffffff81168114612e2d57600080fd5b8051600181900b8114612e2d57600080fd5b805161ffff81168114612e2d57600080fd5b805160ff81168114612e2d57600080fd5b6000610180828403121561350757600080fd5b61350f612f09565b8251815261351f602084016134ac565b6020820152613530604084016134ac565b6040820152613541606084016134ac565b6060820152613552608084016134ac565b608082015261356360a084016134bf565b60a082015261357460c084016134d1565b60c082015261358560e084016134d1565b60e08201526101006135988185016134e3565b908201526101206135aa8482016134e3565b908201526101406135bc8482016134e3565b908201526101606135ce8482016134e3565b908201529392505050565b60208082526032908201527f4552433732313a207472616e7366657220746f206e6f6e20455243373231526560408201527131b2b4bb32b91034b6b83632b6b2b73a32b960711b606082015260800190565b634e487b7160e01b600052601260045260246000fd5b6000826136505761365061362b565b500490565b6000826136645761366461362b565b500690565b60008160010b8360010b617fff6000821360008413838304851182821616156136945761369461335f565b617fff1960008512828116878305871216156136b2576136b261335f565b600087129250858205871284841616156136ce576136ce61335f565b858505871281841616156136e4576136e461335f565b5050509290910295945050505050565b600062ffffff808316818516818304811182151516156137165761371661335f565b02949350505050565b600060ff821660ff84168160ff04811182151516156137405761374061335f565b029392505050565b600060ff821660ff84168060ff038211156137655761376561335f565b019392505050565b6001600160a01b03858116825284166020820152604081018390526080606082018190526000906125ae90830184612dbe565b6000602082840312156137b257600080fd5b815161127681612d5f565b6001600160a01b0389811682526020820189905260408201889052861660608201526001600160e01b03198516608082015260a0810184905260c0810183905261010060e0820181905260009061381683820185612dbe565b9b9a5050505050505050505050565b60018060a01b038416815282602082015260606040820152600061204b6060830184612dbe565b60008160001904831182151516156138665761386661335f565b500290565b600181815b808511156138a657816000190482111561388c5761388c61335f565b8085161561389957918102915b93841c9390800290613870565b509250929050565b6000826138bd5750600161066c565b816138ca5750600061066c565b81600181146138e057600281146138ea57613906565b600191505061066c565b60ff8411156138fb576138fb61335f565b50506001821b61066c565b5060208310610133831016604e8410600b8410161715613929575081810a61066c565b613933838361386b565b80600019048211156137405761374061335f565b600061127683836138ae56fea2646970667358221220f269e65d90d351949a48d607a139775785329a1c056cdf5f2ee971050ec69a5564736f6c63430008090033",
  "linkReferences": {},
  "deployedLinkReferences": {}
}